S00E000054696E794F532E73726563D0
S11300000C945A000C9477000C9477000C947700AD
S11300100C9477000C9477000C9477000C94770080
S11300200C9477000C9477000C9477000C94770070
S11300300C9477000C9477000C9477000C94770060
S11300400C9477000C9477000C9477000C94770050
S11300500C9477000C9477000C9477000C94770040
S11300600C9477000C9477000C9477000C94770030
S11300700C9477000C9477000C9477000C94770020
S11300800C9477000C9477000C9477000C94770010
S11300900C9477000C9477000C9477000C94770000
S11300A00C9477000C9477000C9477000C947700F0
S11300B00C94770011241FBECFEFD8E0DEBFCDBF74
S11300C011E0A0E0B1E0E6E5F4E002C005900D9295
S11300D0A03DB107D9F721E0A0EDB1E001C01D9228
S11300E0AB3DB207E1F70E94FA010C9429020C948B
S11300F0000007E004B900E005B901B910E007E623
S11301001093C5000093C40008E10093C10006E009
S11301100093C20007E800937A0000E400937C0097
S113012000E000937B000EEF00937E000FEF00933E
S11301307F0008950E94D7000FEF0AB90091D00103
S11301400BB904E005B90E94AC0000E005B90E94B7
S1130150AC000E94D10008950AEF1FEF1A95F1F741
S11301600A95D9F708950E94D7000FEF0AB90091B4
S1130170D0010BB906E005B90E94AC0000E005B956
S11301800E94AC000E94D10008950E94D70000E0B4
S11301900AB945B80BB10093D00105B80E94D1004B
S11301A0089502E00AB908E10093C100089500E04F
S11301B00093C10008950091C00007FF08950091C5
S11301C0C600F9CF0091C00007FFFCCF0091C60024
S11301D00093D20108951091C00015FFFCCF009147
S11301E0D2010093C600089507EC00937A000091B1
S11301F07A0006FDFCCF009178000093D8010091AD
S113020079000093D1010895F999FECF20E015E01B
S113021006E422BD11BD00BDFA9AF99A0895F99930
S1130220FECF20E015E000E022BD11BDF89A00B534
S11302300093D2010895CF93DF93EC0105C021967A
S11302408093D2010E94EB0088818111F8CFDF9165
S1130250CF910895CF93DF93EC0105C0219680934D
S1130260D0010E94B30088818111F8CFDF91CF9132
S1130270089582EB91E00E941B018BE791E00E94BC
S11302801B0180E591E00E941B0108958AE591E03D
S11302900E941B01089584E38093D0010E949A0078
S11302A088E08093D0010E949A0082E08093D0017C
S11302B00E949A0086E08093D0010E949A008FE009
S11302C08093D0010E949A0080E091E00E942A016C
S11302D00895CF93DF93C3EDD1E08EE2898380E26A
S11302E08B831C820E94F4002091D10130E0322FD4
S11302F022278091D801280F311DC901880F991F29
S1130300220F331F220F331F220F331F820F931F1D
S1130310EEEFF7E0BF010E94010220E3260F2883DD
S1130320AC01440F551F880F991F880F991F880F20
S1130330991F840F951FBF010E940102605D6A83AB
S11303409093DA018093D9018F3F93401CF06F5F43
S11303506093D5018091D5018A3331F4E3EDF1E066
S113036080E382832F5F208383ED91E00E941B0151
S11303708AE291E00E941B01DF91CF9108958EE003
S113038091E00E941B0187E291E00E941B010E9400
S1130390040187E291E00E941B010E940F010E9468
S11303A0EB0087E291E00E941B0108958AE591E049
S11303B00E941B011092D20102C00E94E2008091AF
S11303C0D2018823D1F3853659F08C3619F0813661
S11303D051F403C00E944B0108950E9469010895DD
S11303E00E94BF01089581E391E00E941B010E94D5
S11303F0460108950E9479000E9439010E94D601A5
S1130400FDCF97FB072E16F4009407D077FD09D093
S11304100E94150207FC05D03EF4909581959F4FEC
S11304200895709561957F4F0895AA1BBB1B51E1F8
S113043007C0AA1FBB1FA617B70710F0A61BB70B50
S1130440881F991F5A95A9F780959095BC01CD01F5
S10904500895F894FFCFAB
S113045648656C6C6F2045434534313221000D0AE2
S1130466454550524F4D20577269746520616E643C
S113047620526561642E000D0A00566F6C74730D6C
S1130486000D0A496E76616C696420436F6D6D6177
S11304966E642054727920416761696E2E2E2E0097
S11304A60D0A52656164793A20000D0A4D656E7530
S11304B63A20284C2943442C2028412943442C2003
S11304C62845294550524F4D0D0A000D0A627920E0
S11304D6457567656E6520526F636B657920436F5A
S11304E67079726967687420323031382C20416C17
S11304F66C205269676874732052657365727665F9
S113050664000D0A4543452D3431322041544D656E
S11305166761333238502054696E79204F53000096
S9030000FC
