:100000000C943A000C947B000C947B000C947B00C5
:100010000C947B000C947B000C947B000C947B0074
:100020000C947B000C947B000C947B000C947B0064
:100030000C947B000C947B000C947B000C947B0054
:100040000C947B000C947B000C947B000C947B0044
:100050000C947B000C947B000C947B000C947B0034
:100060000C947B000C947B000100010180010101D4
:10007000030000FA11241FBECFEFD8E0DEBFCDBFD2
:10008000E8E6F0E040E017C0B591A59135912591E3
:10009000059107FD0CC095918591EF01F92FE82F8F
:1000A00005900D92A217B307D9F7FE0104C01D9267
:1000B000A217B307E1F7E437F40731F70E947000A5
:0800C0000C946200F894FFCFDC
:1000C800991B79E004C0991F961708F0961B881FA2
:0800D8007A95C9F7809508959F
:1000E00080910101609102010E94640080930001EF
:0600F00080E090E008959D
:0400F6000C94000066
:0100FA000203
:0100FB000103
:00000001FF
